{
  "contractName": "Asset",
  "abi": [
    {
      "constant": false,
      "inputs": [
        {
          "name": "_to",
          "type": "address"
        }
      ],
      "name": "changeOwnership",
      "outputs": [
        {
          "name": "",
          "type": "bool"
        }
      ],
      "payable": false,
      "stateMutability": "nonpayable",
      "type": "function"
    },
    {
      "constant": false,
      "inputs": [],
      "name": "claimOwnership",
      "outputs": [
        {
          "name": "",
          "type": "bool"
        }
      ],
      "payable": false,
      "stateMutability": "nonpayable",
      "type": "function"
    },
    {
      "constant": true,
      "inputs": [],
      "name": "sellState",
      "outputs": [
        {
          "name": "",
          "type": "uint8"
        }
      ],
      "payable": false,
      "stateMutability": "view",
      "type": "function"
    },
    {
      "constant": false,
      "inputs": [
        {
          "name": "_to",
          "type": "address"
        }
      ],
      "name": "forceChangeOwnership",
      "outputs": [
        {
          "name": "",
          "type": "bool"
        }
      ],
      "payable": false,
      "stateMutability": "nonpayable",
      "type": "function"
    },
    {
      "constant": true,
      "inputs": [],
      "name": "getOwner",
      "outputs": [
        {
          "name": "",
          "type": "address"
        }
      ],
      "payable": false,
      "stateMutability": "view",
      "type": "function"
    },
    {
      "constant": true,
      "inputs": [],
      "name": "price",
      "outputs": [
        {
          "name": "",
          "type": "uint256"
        }
      ],
      "payable": false,
      "stateMutability": "view",
      "type": "function"
    },
    {
      "constant": true,
      "inputs": [],
      "name": "currentOwner",
      "outputs": [
        {
          "name": "",
          "type": "address"
        }
      ],
      "payable": false,
      "stateMutability": "view",
      "type": "function"
    },
    {
      "constant": true,
      "inputs": [],
      "name": "expiry",
      "outputs": [
        {
          "name": "",
          "type": "uint256"
        }
      ],
      "payable": false,
      "stateMutability": "view",
      "type": "function"
    },
    {
      "constant": true,
      "inputs": [],
      "name": "pendingOwner",
      "outputs": [
        {
          "name": "",
          "type": "address"
        }
      ],
      "payable": false,
      "stateMutability": "view",
      "type": "function"
    },
    {
      "constant": true,
      "inputs": [],
      "name": "serial",
      "outputs": [
        {
          "name": "",
          "type": "bytes32"
        }
      ],
      "payable": false,
      "stateMutability": "view",
      "type": "function"
    },
    {
      "inputs": [
        {
          "name": "_serial",
          "type": "bytes32"
        },
        {
          "name": "_name",
          "type": "bytes32"
        },
        {
          "name": "_created",
          "type": "uint256"
        },
        {
          "name": "_dependency",
          "type": "uint8"
        },
        {
          "name": "_creator",
          "type": "bytes32"
        },
        {
          "name": "_location",
          "type": "address"
        },
        {
          "name": "_totalRelease",
          "type": "uint256"
        },
        {
          "name": "_releaseNumber",
          "type": "uint256"
        },
        {
          "name": "_unlockPaymentCode",
          "type": "uint8"
        },
        {
          "name": "_isFinal",
          "type": "bool"
        }
      ],
      "payable": false,
      "stateMutability": "nonpayable",
      "type": "constructor"
    },
    {
      "anonymous": false,
      "inputs": [
        {
          "indexed": false,
          "name": "from",
          "type": "address"
        },
        {
          "indexed": false,
          "name": "totalRelease",
          "type": "uint256"
        },
        {
          "indexed": false,
          "name": "releaseNumber",
          "type": "uint256"
        }
      ],
      "name": "Sent",
      "type": "event"
    },
    {
      "constant": false,
      "inputs": [
        {
          "name": "_price",
          "type": "uint256"
        },
        {
          "name": "_expiry",
          "type": "uint256"
        }
      ],
      "name": "setForSale",
      "outputs": [
        {
          "name": "",
          "type": "bool"
        }
      ],
      "payable": false,
      "stateMutability": "nonpayable",
      "type": "function"
    },
    {
      "constant": false,
      "inputs": [],
      "name": "buyAsset",
      "outputs": [
        {
          "name": "",
          "type": "bool"
        }
      ],
      "payable": true,
      "stateMutability": "payable",
      "type": "function"
    }
  ],
  "bytecode": "0x6060604052341561000f57600080fd5b604051610140806108eb83398101604052808051906020019091908051906020019091908051906020019091908051906020019091908051906020019091908051906020019091908051906020019091908051906020019091908051906020019091908051906020019091905050336000806101000a81548173ffffffffffffffffffffffffffffffffffffffff021916908373ffffffffffffffffffffffffffffffffffffffff16021790555089600281600019169055506002600360006101000a81548160ff021916908360028111156100e757fe5b021790555088600660000181600019169055508760066001018190555086600660020160006101000a81548160ff021916908360ff160217905550856006600301816000191690555084600660040160006101000a81548173ffffffffffffffffffffffffffffffffffffffff021916908373ffffffffffffffffffffffffffffffffffffffff1602179055508360066005018190555082600680018190555081600660070160006101000a81548160ff021916908360ff16021790555080600660070160016101000a81548160ff02191690831515021790555050505050505050505050610710806101db6000396000f3006060604052600436106100ba576000357c0100000000000000000000000000000000000000000000000000000000900463ffffffff16806317fcfe22146100bf5780632af4c31e146101035780634e71e0c81461015457806351613fa3146101815780636fa17825146101b8578063893d20e8146102095780639fbaf1311461025e578063a035b1fe14610280578063b387ef92146102a9578063e184c9be146102fe578063e30c397814610327578063f6d713dd1461037c575b600080fd5b34156100ca57600080fd5b6100e960048080359060200190919080359060200190919050506103ad565b604051808215151515815260200191505060405180910390f35b341561010e57600080fd5b61013a600480803573ffffffffffffffffffffffffffffffffffffffff16906020019091905050610441565b604051808215151515815260200191505060405180910390f35b341561015f57600080fd5b6101676104e3565b604051808215151515815260200191505060405180910390f35b341561018c57600080fd5b6101946105a5565b604051808260028111156101a457fe5b60ff16815260200191505060405180910390f35b34156101c357600080fd5b6101ef600480803573ffffffffffffffffffffffffffffffffffffffff169060200190919050506105b8565b604051808215151515815260200191505060405180910390f35b341561021457600080fd5b61021c610659565b604051808273ffffffffffffffffffffffffffffffffffffffff1673ffffffffffffffffffffffffffffffffffffffff16815260200191505060405180910390f35b610266610682565b604051808215151515815260200191505060405180910390f35b341561028b57600080fd5b610293610687565b6040518082815260200191505060405180910390f35b34156102b457600080fd5b6102bc61068d565b604051808273ffffffffffffffffffffffffffffffffffffffff1673ffffffffffffffffffffffffffffffffffffffff16815260200191505060405180910390f35b341561030957600080fd5b6103116106b2565b6040518082815260200191505060405180910390f35b341561033257600080fd5b61033a6106b8565b604051808273ffffffffffffffffffffffffffffffffffffffff1673ffffffffffffffffffffffffffffffffffffffff16815260200191505060405180910390f35b341561038757600080fd5b61038f6106de565b60405180826000191660001916815260200191505060405180910390f35b60003373ffffffffffffffffffffffffffffffffffffffff166000809054906101000a900473ffffffffffffffffffffffffffffffffffffffff1673ffffffffffffffffffffffffffffffffffffffff16141561043b5781600481905550826005819055506000600360006101000a81548160ff0219169083600281111561043157fe5b0217905550600190505b92915050565b60003373ffffffffffffffffffffffffffffffffffffffff166000809054906101000a900473ffffffffffffffffffffffffffffffffffffffff1673ffffffffffffffffffffffffffffffffffffffff1614156104de5781600160006101000a81548173ffffffffffffffffffffffffffffffffffffffff021916908373ffffffffffffffffffffffffffffffffffffffff160217905550600190505b919050565b60003373ffffffffffffffffffffffffffffffffffffffff16600160009054906101000a900473ffffffffffffffffffffffffffffffffffffffff1673ffffffffffffffffffffffffffffffffffffffff1614156105a257600160009054906101000a900473ffffffffffffffffffffffffffffffffffffffff166000806101000a81548173ffffffffffffffffffffffffffffffffffffffff021916908373ffffffffffffffffffffffffffffffffffffffff160217905550600190505b90565b600360009054906101000a900460ff1681565b60003373ffffffffffffffffffffffffffffffffffffffff166000809054906101000a900473ffffffffffffffffffffffffffffffffffffffff1673ffffffffffffffffffffffffffffffffffffffff16141561065457816000806101000a81548173ffffffffffffffffffffffffffffffffffffffff021916908373ffffffffffffffffffffffffffffffffffffffff160217905550600190505b919050565b60008060009054906101000a900473ffffffffffffffffffffffffffffffffffffffff16905090565b600090565b60055481565b6000809054906101000a900473ffffffffffffffffffffffffffffffffffffffff1681565b60045481565b600160009054906101000a900473ffffffffffffffffffffffffffffffffffffffff1681565b600254815600a165627a7a7230582081502a32755e5eb48b1c8ead507c155af1af119b8b56707102e80eafbdd0332b0029",
  "source": "pragma solidity ^0.4.18;\n\nimport \"./Owned.sol\";\n\ncontract Asset is Owned{\n\t\n\tstruct Properties {\n\t\tbytes32 name;               // Name of the art object\n\t    uint created;               // When was this created\n\t    uint8 dependency;           // Any dependency (not sure what it can be at this point)\n\t    bytes32 creator;            // who created the art\n\t    address location;           // where it is created\n\t    uint totalRelease;\n\t    uint releaseNumber;         // X of Y release\n\t    uint8 unlockPaymentCode;    // Binds this to the existing owner\n\t    bool isFinal;               // left over from Propy.\t\n\t}\n\n\tenum State { forSale, onAuction, notForSale }\n\n\tbytes32 public serial;\n\tState public sellState;\n\n\t// Market Sell //\n\tuint public expiry; // Note: delete on notForSale\n\tuint public price;\n\n\tProperties properties;\n\n\t// Constructor //\n\tfunction Asset(bytes32 _serial, bytes32 _name, uint _created, uint8 _dependency, \n\t\tbytes32 _creator, address _location, uint _totalRelease, uint _releaseNumber,\n\t\tuint8 _unlockPaymentCode, bool _isFinal) public{\n\n\t\tserial = _serial;\n\n\t\tsellState = State.notForSale;\n\n\t\tproperties.name = _name;\n\t\tproperties.created = _created;\n\t\tproperties.dependency = _dependency;\n\t\tproperties.creator = _creator;\n\t\tproperties.location = _location;\n\t\tproperties.totalRelease = _totalRelease;\n\t\tproperties.releaseNumber = _releaseNumber;\n\t\tproperties.unlockPaymentCode = _unlockPaymentCode;\n\t\tproperties.isFinal = _isFinal;\n\n\t\t// Events // \n\t\t//emit Sent(currentOwner, _totalRelease, _releaseNumber);\n\n\t}\n\n\t// Modifier //\n\tmodifier isForSale(){\n\t\tif (sellState == State.forSale){\n\t\t\t_;\n\t\t}\n\t}\n\n\tmodifier isOnAuction(){\n\t\tif (sellState == State.onAuction) {\n\t\t\t_;\n\t\t}\n\t}\n\n\tmodifier isNotForSale(){\n\t\tif (sellState == State.notForSale) {\n\t\t\t_;\n\t\t}\n\t}\n\n\tmodifier beforeExpiry(){\n\t\tif (expiry >= now) { // NOTE: Now does not mean current time.\n\t\t\t_;\n\t\t}\n\t}\n\n\t// Functions //\n\n\tfunction setForSale(uint _price, uint _expiry) onlyOwner public returns(bool) {\n\t\texpiry = _expiry;\n\t\tprice = _price;\n\t\tsellState = State.forSale;\n\t\treturn true;\n\t}\n\n\tfunction buyAsset() beforeExpiry public payable returns (bool){\n\t\t//TODO\n\t}\n\n\n    event Sent(address from, uint totalRelease, uint releaseNumber);\n\n\n\n\n\n}",
  "sourcePath": "/home/vincent/Documents/workspace/asset-transfer/contracts/Asset.sol",
  "compiler": {
    "name": "solc",
    "version": "0.4.21+commit.dfe3193c.Emscripten.clang"
  },
  "schemaVersion": "2.0.0",
  "updatedAt": "2018-04-23T00:30:42.792Z"
}