{
  "contractName": "Owned",
  "abi": [
    {
      "constant": true,
      "inputs": [],
      "name": "currentOwner",
      "outputs": [
        {
          "name": "",
          "type": "address"
        }
      ],
      "payable": false,
      "stateMutability": "view",
      "type": "function"
    },
    {
      "constant": true,
      "inputs": [],
      "name": "pendingOwner",
      "outputs": [
        {
          "name": "",
          "type": "address"
        }
      ],
      "payable": false,
      "stateMutability": "view",
      "type": "function"
    },
    {
      "inputs": [],
      "payable": false,
      "stateMutability": "nonpayable",
      "type": "constructor"
    },
    {
      "constant": false,
      "inputs": [
        {
          "name": "_to",
          "type": "address"
        }
      ],
      "name": "changeOwnership",
      "outputs": [
        {
          "name": "",
          "type": "bool"
        }
      ],
      "payable": false,
      "stateMutability": "nonpayable",
      "type": "function"
    },
    {
      "constant": false,
      "inputs": [],
      "name": "claimOwnership",
      "outputs": [
        {
          "name": "",
          "type": "bool"
        }
      ],
      "payable": false,
      "stateMutability": "nonpayable",
      "type": "function"
    },
    {
      "constant": false,
      "inputs": [
        {
          "name": "_to",
          "type": "address"
        }
      ],
      "name": "forceChangeOwnership",
      "outputs": [
        {
          "name": "",
          "type": "bool"
        }
      ],
      "payable": false,
      "stateMutability": "nonpayable",
      "type": "function"
    },
    {
      "constant": true,
      "inputs": [],
      "name": "getOwner",
      "outputs": [
        {
          "name": "",
          "type": "address"
        }
      ],
      "payable": false,
      "stateMutability": "view",
      "type": "function"
    }
  ],
  "bytecode": "0x6060604052341561000f57600080fd5b336000806101000a81548173ffffffffffffffffffffffffffffffffffffffff021916908373ffffffffffffffffffffffffffffffffffffffff1602179055506104f08061005e6000396000f300606060405260043610610078576000357c0100000000000000000000000000000000000000000000000000000000900463ffffffff1680632af4c31e1461007d5780634e71e0c8146100ce5780636fa17825146100fb578063893d20e81461014c578063b387ef92146101a1578063e30c3978146101f6575b600080fd5b341561008857600080fd5b6100b4600480803573ffffffffffffffffffffffffffffffffffffffff1690602001909190505061024b565b604051808215151515815260200191505060405180910390f35b34156100d957600080fd5b6100e16102ed565b604051808215151515815260200191505060405180910390f35b341561010657600080fd5b610132600480803573ffffffffffffffffffffffffffffffffffffffff169060200190919050506103af565b604051808215151515815260200191505060405180910390f35b341561015757600080fd5b61015f610450565b604051808273ffffffffffffffffffffffffffffffffffffffff1673ffffffffffffffffffffffffffffffffffffffff16815260200191505060405180910390f35b34156101ac57600080fd5b6101b4610479565b604051808273ffffffffffffffffffffffffffffffffffffffff1673ffffffffffffffffffffffffffffffffffffffff16815260200191505060405180910390f35b341561020157600080fd5b61020961049e565b604051808273ffffffffffffffffffffffffffffffffffffffff1673ffffffffffffffffffffffffffffffffffffffff16815260200191505060405180910390f35b60003373ffffffffffffffffffffffffffffffffffffffff166000809054906101000a900473ffffffffffffffffffffffffffffffffffffffff1673ffffffffffffffffffffffffffffffffffffffff1614156102e85781600160006101000a81548173ffffffffffffffffffffffffffffffffffffffff021916908373ffffffffffffffffffffffffffffffffffffffff160217905550600190505b919050565b60003373ffffffffffffffffffffffffffffffffffffffff16600160009054906101000a900473ffffffffffffffffffffffffffffffffffffffff1673ffffffffffffffffffffffffffffffffffffffff1614156103ac57600160009054906101000a900473ffffffffffffffffffffffffffffffffffffffff166000806101000a81548173ffffffffffffffffffffffffffffffffffffffff021916908373ffffffffffffffffffffffffffffffffffffffff160217905550600190505b90565b60003373ffffffffffffffffffffffffffffffffffffffff166000809054906101000a900473ffffffffffffffffffffffffffffffffffffffff1673ffffffffffffffffffffffffffffffffffffffff16141561044b57816000806101000a81548173ffffffffffffffffffffffffffffffffffffffff021916908373ffffffffffffffffffffffffffffffffffffffff160217905550600190505b919050565b60008060009054906101000a900473ffffffffffffffffffffffffffffffffffffffff16905090565b6000809054906101000a900473ffffffffffffffffffffffffffffffffffffffff1681565b600160009054906101000a900473ffffffffffffffffffffffffffffffffffffffff16815600a165627a7a723058201cbde802ff12ace3f5136dd33562baad4e5e434a840cdee34b0aa55fbcfd28640029",
  "source": "pragma solidity ^0.4.18;\n\ncontract Owned {\n\t\n\taddress public currentOwner;\n\taddress public pendingOwner;\n\n\t// Constructor //\n\tfunction Owned() public {\n\t\tcurrentOwner = msg.sender;\n\t}\n\n\t// Modifier //\n\tmodifier onlyOwner(){\n\t\tif (currentOwner == msg.sender){\n\t\t\t_;\n\t\t}\n\t}\n\n\tmodifier onlyPendingOwner(){\n\t\tif (pendingOwner == msg.sender) {\n\t\t\t_;\n\t\t}\n\t}\n\n\t// methods //\n\tfunction changeOwnership(address _to) onlyOwner public returns(bool){\n\t\tpendingOwner = _to;\n\t\treturn true;\n\t}\n\n\tfunction claimOwnership() onlyPendingOwner public returns(bool){\n\t\tcurrentOwner = pendingOwner;\n\t\treturn true;\n\t}\n\n\tfunction forceChangeOwnership(address _to) onlyOwner public returns(bool) {\n\t\tcurrentOwner = _to;\n\t\treturn true;\n\t}\n\n\t// Getters //\n\tfunction getOwner() public view returns(address){\n\t\treturn currentOwner;\n\t}\n\n}",
  "sourcePath": "/home/vincent/Documents/workspace/asset-transfer/contracts/Owned.sol",
  "compiler": {
    "name": "solc",
    "version": "0.4.21+commit.dfe3193c.Emscripten.clang"
  },
  "schemaVersion": "2.0.0",
  "updatedAt": "2018-04-25T00:15:48.717Z"
}