{
  "contractName": "Owned",
  "abi": [
    {
      "constant": true,
      "inputs": [],
      "name": "currentOwner",
      "outputs": [
        {
          "name": "",
          "type": "address"
        }
      ],
      "payable": false,
      "stateMutability": "view",
      "type": "function"
    },
    {
      "constant": true,
      "inputs": [],
      "name": "pendingOwner",
      "outputs": [
        {
          "name": "",
          "type": "address"
        }
      ],
      "payable": false,
      "stateMutability": "view",
      "type": "function"
    },
    {
      "inputs": [],
      "payable": false,
      "stateMutability": "nonpayable",
      "type": "constructor"
    },
    {
      "constant": false,
      "inputs": [
        {
          "name": "_to",
          "type": "address"
        }
      ],
      "name": "changeOwnership",
      "outputs": [
        {
          "name": "",
          "type": "bool"
        }
      ],
      "payable": false,
      "stateMutability": "nonpayable",
      "type": "function"
    },
    {
      "constant": false,
      "inputs": [],
      "name": "claimOwnership",
      "outputs": [
        {
          "name": "",
          "type": "bool"
        }
      ],
      "payable": false,
      "stateMutability": "nonpayable",
      "type": "function"
    },
    {
      "constant": false,
      "inputs": [
        {
          "name": "_to",
          "type": "address"
        }
      ],
      "name": "forceChangeOwnership",
      "outputs": [
        {
          "name": "",
          "type": "bool"
        }
      ],
      "payable": false,
      "stateMutability": "nonpayable",
      "type": "function"
    }
  ],
  "bytecode": "0x6060604052341561000f57600080fd5b336000806101000a81548173ffffffffffffffffffffffffffffffffffffffff021916908373ffffffffffffffffffffffffffffffffffffffff1602179055506104678061005e6000396000f30060606040526004361061006d576000357c0100000000000000000000000000000000000000000000000000000000900463ffffffff1680632af4c31e146100725780634e71e0c8146100c35780636fa17825146100f0578063b387ef9214610141578063e30c397814610196575b600080fd5b341561007d57600080fd5b6100a9600480803573ffffffffffffffffffffffffffffffffffffffff169060200190919050506101eb565b604051808215151515815260200191505060405180910390f35b34156100ce57600080fd5b6100d661028d565b604051808215151515815260200191505060405180910390f35b34156100fb57600080fd5b610127600480803573ffffffffffffffffffffffffffffffffffffffff1690602001909190505061034f565b604051808215151515815260200191505060405180910390f35b341561014c57600080fd5b6101546103f0565b604051808273ffffffffffffffffffffffffffffffffffffffff1673ffffffffffffffffffffffffffffffffffffffff16815260200191505060405180910390f35b34156101a157600080fd5b6101a9610415565b604051808273ffffffffffffffffffffffffffffffffffffffff1673ffffffffffffffffffffffffffffffffffffffff16815260200191505060405180910390f35b60003373ffffffffffffffffffffffffffffffffffffffff166000809054906101000a900473ffffffffffffffffffffffffffffffffffffffff1673ffffffffffffffffffffffffffffffffffffffff1614156102885781600160006101000a81548173ffffffffffffffffffffffffffffffffffffffff021916908373ffffffffffffffffffffffffffffffffffffffff160217905550600190505b919050565b60003373ffffffffffffffffffffffffffffffffffffffff16600160009054906101000a900473ffffffffffffffffffffffffffffffffffffffff1673ffffffffffffffffffffffffffffffffffffffff16141561034c57600160009054906101000a900473ffffffffffffffffffffffffffffffffffffffff166000806101000a81548173ffffffffffffffffffffffffffffffffffffffff021916908373ffffffffffffffffffffffffffffffffffffffff160217905550600190505b90565b60003373ffffffffffffffffffffffffffffffffffffffff166000809054906101000a900473ffffffffffffffffffffffffffffffffffffffff1673ffffffffffffffffffffffffffffffffffffffff1614156103eb57816000806101000a81548173ffffffffffffffffffffffffffffffffffffffff021916908373ffffffffffffffffffffffffffffffffffffffff160217905550600190505b919050565b6000809054906101000a900473ffffffffffffffffffffffffffffffffffffffff1681565b600160009054906101000a900473ffffffffffffffffffffffffffffffffffffffff16815600a165627a7a7230582038bb02d081975e5d865dd008cf54f8b001a5371c4796141f2ec0c6672959e0c60029",
  "source": "pragma solidity ^0.4.18;\n\ncontract Owned {\n\t\n\taddress public currentOwner;\n\taddress public pendingOwner;\n\n\t// constructor //\n\tfunction Owned() {\n\t\tcurrentOwner = msg.sender;\n\t}\n\n\t// modifier //\n\tmodifier onlyOwner(){\n\t\tif (currentOwner == msg.sender){\n\t\t\t_;\n\t\t}\n\t}\n\n\tmodifier onlyPendingOwner(){\n\t\tif (pendingOwner == msg.sender) {\n\t\t\t_;\n\t\t}\n\t}\n\n\t// methods //\n\tfunction changeOwnership(address _to) onlyOwner returns(bool){\n\t\tpendingOwner = _to;\n\t\treturn true;\n\t}\n\n\tfunction claimOwnership() onlyPendingOwner returns(bool){\n\t\tcurrentOwner = pendingOwner;\n\t\treturn true;\n\t}\n\n\tfunction forceChangeOwnership(address _to) onlyOwner returns(bool) {\n\t\tcurrentOwner = _to;\n\t\treturn true;\n\t}\n\n}",
  "sourcePath": "/home/vincent/Documents/workspace/asset-transfer/contracts/Owned.sol",
  "compiler": {
    "name": "solc",
    "version": "0.4.21+commit.dfe3193c.Emscripten.clang"
  },
  "schemaVersion": "2.0.0",
  "updatedAt": "2018-04-01T20:40:20.514Z"
}